:100000000C9462000C948A000C948A000C948A0070
:100010000C948A000C948A000C948A000C948A0038
:100020000C948A000C948A000C948A000C9410089A
:100030000C948A000C948A000C948A000C948A0018
:100040000C945C060C948A000C941D030C94F7022B
:100050000C948A000C948A000C948A000C948A00F8
:100060000C948A000C948A000000000024002700F1
:100070002A0000000000250028002B0000000000DE
:1000800023002600290004040404040404040202DA
:100090000202020203030303030301020408102007
:1000A0004080010204081020010204081020000012
:1000B0000008000201000003040700000000000027
:1000C0000000AC0B11241FBECFEFD8E0DEBFCDBFC8
:1000D00023E0A6EFB2E001C01D92AA3EB207E1F70D
:1000E00012E0A0E0B1E0EEE9F5E202C005900D9269
:1000F000A63FB107D9F710E0C2E6D0E004C02197CF
:10010000FE010E94B20FC136D107C9F70E94E80B69
:100110000C94CD120C940000CF92DF92EF92FF92DC
:100120000F931F93CF93DF936C017A018B01C0E093
:10013000D0E0CE15DF0589F0D8016D918D01D60193
:10014000ED91FC910190F081E02DC6010995892B7C
:1001500011F47E0102C02196ECCFC701DF91CF914F
:100160001F910F91FF90EF90DF90CF900895FC01C9
:10017000918D828D981761F0828DDF01A80FB11DDE
:100180005D968C91928D9F5F9F73928F90E0089502
:100190008FEF9FEF0895FC01918D828D981731F0BC
:1001A000828DE80FF11D858D90E008958FEF9FEF10
:1001B0000895FC01918D228D892F90E0805C9F4FE6
:1001C000821B91098F739927089582E293E00E9420
:1001D000D90021E0892B09F420E0822F0895FC0149
:1001E000848DDF01A80FB11DA35ABF4F2C91848DC0
:1001F00090E001968F739927848FA689B7892C93F5
:10020000A089B1898C9180648C93938D848D98138F
:1002100006C00288F389E02D80818F7D8083089558
:10022000EF92FF920F931F93CF93DF93EC0181E046
:10023000888F9B8D8C8D981305C0E889F989808102
:1002400085FD24C0F62E0B8D10E00F5F1F4F0F733E
:100250001127E02E8C8DE8120CC00FB607FCFACFE8
:10026000E889F989808185FFF5CFCE010E94EF00F2
:10027000F1CF8B8DFE01E80FF11DE35AFF4FF082A5
:100280000B8FEA89FB898081806207C0EE89FF8934
:100290006083E889F98980818064808381E090E0CF
:1002A000DF91CF911F910F91FF90EF900895CF9321
:1002B000DF93EC01888D8823C9F0EA89FB8980816E
:1002C00085FD05C0A889B9898C9186FD0FC00FB640
:1002D00007FCF5CF808185FFF2CFA889B9898C9181
:1002E00085FFEDCFCE010E94EF00E7CFDF91CF91E8
:1002F000089580E090E0892B29F00E94E5008111AB
:100300000C9400000895009769F0FC010190002012
:10031000E9F73197AF01481B590BBC0182E293E02A
:100320000C948C0080E090E00895CF93DF930E94BE
:100330008301EC0184E291E00E9483018C0F9D1FF8
:10034000DF91CF9108950E944F128F929F92AF92AA
:10035000BF920F931F93CF93DF93CDB7DEB7A197D3
:100360000FB6F894DEBF0FBECDBF19A2423008F41D
:100370004AE08E010F5D1F4F842E912CA12CB12CD1
:10038000A50194010E949C12E62FB901CA010150F7
:100390001109EA3014F4E05D01C0E95CD801EC9386
:1003A000232B242B252B61F7C8010E948301A196E2
:1003B0000FB6F894DEBF0FBECDBFDF91CF911F9176
:1003C0000F91BF90AF909F908F900895CF92DF9242
:1003D000EF92FF92CF93DF936B017C01E0912203B8
:1003E000F09123030190F081E02D6DE282E293E031
:1003F0000995EC0166277727CB016C197D098E09D9
:100400009F094AE00E94A5018C0F9D1FDF91CF91AB
:10041000FF90EF90DF90CF900895CF93DF93BC01D2
:10042000990F880B990B97FF03C00E94E60103C048
:100430004AE00E94A501EC0184E291E00E94830160
:100440008C0F9D1FDF91CF9108950C9483014F92E3
:100450005F926F927F928F929F92AF92BF92CF9254
:10046000DF92EF92FF926B017C019B01AC010E9435
:100470003512882319F087E291E01AC0460157012E
:10048000E894B7F82FEF3FEF4FE75FE7C501B401FE
:100490000E943512811110C02FEF3FEF4FE75FE749
:1004A000C501B4010E942510181634F48BE291E0C6
:1004B0000E9483017C0188C02FEF3FEF4FE75FE48C
:1004C000C701B6010E947D1118161CF48FE291E05D
:1004D000EFCF2FEF3FEF4FE75FECC701B6010E9470
:1004E000251087FDF3CF20E030E0A901C701B60158
:1004F0000E94251087FF11C0E0912203F091230391
:100500000190F081E02D6DE282E293E009955C01BB
:10051000F7FAF094F7F8F09402C0A12CB12C2AE07D
:1005200037ED43EA5BE3C701B6010E94B90F2B0127
:100530003C010E949C106B017C010E94CB109B012E
:10054000AC01C301B2010E94B80F2B013C014AE08B
:10055000C701B6010E94A5017C01EA0CFB1C81E7E2
:1005600092E00E948301E80EF91E20E030E040E2B4
:1005700051E4C301B2010E9482112B013C010E948F
:100580009C104B01A12CB12C4AE0C501B4010E9482
:10059000A501E80EF91EC501B4010E94CB109B0114
:1005A000AC01C301B2010E94B80F20E030E040E28C
:1005B00051E40E9482110E949C1080E090E04AE089
:1005C0000E94A501E80EF91E84E291E00E948301D9
:1005D0008E0D9F1DFF90EF90DF90CF90BF90AF905A
:1005E0009F908F907F906F905F904F9008951F9293
:1005F0000F920FB60F9211242F933F934F935F9357
:100600006F937F938F939F93AF93BF93EF93FF93DA
:1006100082E293E00E94EF00FF91EF91BF91AF91D2
:100620009F918F917F916F915F914F913F912F910A
:100630000F900FBE0F901F9018951F920F920FB63C
:100640000F9211242F938F939F93EF93FF93E09139
:100650003203F09133038081E0913803F091390344
:1006600082FD12C0908180913B038F5F8F73209138
:100670003C03821751F0E0913B03F0E0EE5DFC4F4C
:10068000958F80933B0301C08081FF91EF919F91F3
:100690008F912F910F900FBE0F901F901895833060
:1006A00081F028F4813099F08230A1F008958730EC
:1006B000A9F08830B9F08430D1F4809180008F7D2A
:1006C00003C0809180008F7780938000089584B567
:1006D0008F7702C084B58F7D84BD08958091B0006E
:1006E0008F7703C08091B0008F7D8093B000089514
:1006F0001F93CF93DF93282F30E0F901E255FF4F8E
:100700008491F901E656FF4FD491F901EA57FF4F62
:10071000C491CC23C9F0162F81110E944F03EC2FF6
:10072000F0E0EE0FFF1FEE58FF4FA591B4918FB789
:10073000F894111105C09C91ED2FE095E92302C0BA
:10074000EC91ED2BEC938FBFDF91CF911F9108952A
:100750003FB7F8948091E6039091E703A091E803F6
:10076000B091E90326B5A89B05C02F3F19F001966B
:10077000A11DB11D3FBFBA2FA92F982F8827820F27
:10078000911DA11DB11DBC01CD0142E0660F771F77
:10079000881F991F4A95D1F70895CF93DF93EC01F5
:1007A000CB01BA012E8D3F8D48A159A10E94821123
:1007B0002A8D3B8D4C8D5D8D0E94B90FDF91CF91BD
:1007C0000895FC01668D778D80A191A10895FC01AB
:1007D000628D738D848D958D08952F923F924F92E7
:1007E0005F926F927F928F929F92AF92BF92CF92C1
:1007F000DF92EF92FF920F931F93CF93DF93CDB7CA
:10080000DEB766970FB6F894DEBF0FBECDBF9E8BE6
:100810008D8B8B011A01DC0112968D919D910D90AB
:10082000BC91A02D8D879E87AF87B88B4C015D0151
:10083000BFEF8B1A9B0AAB0ABB0AED89FE89828245
:100840009382A482B582DB012D913D914D915C9103
:1008500066817781808591850E94B90F6B017C014B
:10086000ED89FE896683778380879187D1012D91F9
:100870003D914D915C9162857385848595850E943B
:10088000B90F6D837E838F839887ED89FE89628798
:10089000738784879587D8016D917D918D919C9107
:1008A0009B01AC010E948211ED89FE892685378566
:1008B000408951890E94B90F2B013C01AD89BE8945
:1008C0001E966D937D938D939C935197F10160815A
:1008D0007181828193819B01AC010E948211AD895B
:1008E000BE8952962D913D914D915C9155970E94F4
:1008F000B90F698B7A8B8B8B9C8BED89FE89628B10
:10090000738B848B958BD1012D913D914D915C9191
:10091000F80160817181828193810E948211AD8989
:10092000BE8956962D913D914D915C9159970E94AB
:10093000B90F69877A878B879C87ED89FE89668BDB
:10094000778B808F918FF3E08F169104A104B1040F
:100950000CF4E3C0C501B4010E94CD1069837A8311
:100960008B839C83A30192010E9482114B015C0145
:10097000A7019601C701B6010E9482119B01AC013B
:10098000C501B4010E94B80F4B015C019F7720E0C4
:1009900030E040E054E30E947D1118160CF0A7C02F
:1009A000A70196016D817E818F8198850E948211B9
:1009B0002B013C0129853A854B855C8569817A81CB
:1009C0008B819C810E948211A30192010E94B80F29
:1009D000A50194010E942A104B015C01AD89BE89DA
:1009E0005E966D937D938D939C939197A70196014D
:1009F0000E9482119B01AC016D817E818F8198855F
:100A00000E94B80F29813A814B815C810E942A1093
:100A1000ED89FE89628F738F848F958F29813A814A
:100A20004B815C81C301B2010E942A109B01AC0181
:100A300069857A858B859C850E94B80F9B01AC01E6
:100A4000C501B4010E9482116B017C012D813E81A0
:100A50004F815885CA01B9010E94821129813A81CA
:100A60004B815C810E942A109B01AC0169897A89C3
:100A70008B899C890E94B80F4B015C019B01AC01E2
:100A8000C701B6010E942A10AD89BE8992966D9366
:100A90007D938D939C9395970E94F511ED89FE8926
:100AA00066A377A380A791A7A7019601C501B4010A
:100AB0000E94B80F6B017C016D857E858F859889BA
:100AC00061507109810991090E94CD109B01AC010F
:100AD000C701B6010E942A100E94F511AD89BE8996
:100AE0009A966D937D938D939C939D9716C0ED89F7
:100AF000FE8912A613A614A615A616A217A210A662
:100B000011A612A213A214A215A2168E178E10A25D
:100B100011A2128E138E148E158E66960FB6F8944F
:100B2000DEBF0FBECDBFDF91CF911F910F91FF9020
:100B3000EF90DF90CF90BF90AF909F908F907F907D
:100B40006F905F904F903F902F900895CF93DF93D9
:100B5000282F30E0F901E255FF4F8491F901E65664
:100B6000FF4FD491F901EA57FF4FC491CC2391F084
:100B700081110E944F03EC2FF0E0EE0FFF1FE458AD
:100B8000FF4FA591B491EC91ED2381E090E021F429
:100B900080E002C080E090E0DF91CF910895CF9394
:100BA000DF9390E0FC01E656FF4F2491FC01EA57E9
:100BB000FF4F8491882361F190E0880F991FFC0119
:100BC000E859FF4FC591D491FC01EE58FF4FA59114
:100BD000B491611109C09FB7F89488812095822350
:100BE0008883EC912E230BC0623061F49FB7F89498
:100BF0003881822F809583238883EC912E2B2C9330
:100C00009FBF06C08FB7F894E8812E2B28838FBF33
:100C1000DF91CF9108958E3008F08E5087708064F8
:100C200080937C0080917A00806480937A00809128
:100C30007A0086FDFCCF809178002091790090E0C9
:100C4000922B08958F929F92AF92BF92CF92DF9294
:100C5000EF92FF926B017C010E94A8034B015C01A3
:100C6000C114D104E104F104F1F00E94A803DC01F5
:100C7000CB0188199909AA09BB09883E9340A105AF
:100C8000B10570F321E0C21AD108E108F10888EE3D
:100C9000880E83E0981EA11CB11CC114D104E1048C
:100CA000F10419F7DDCFFF90EF90DF90CF90BF9068
:100CB000AF909F908F9008951F920F920FB60F9252
:100CC00011242F933F938F939F93AF93BF93809162
:100CD000E2039091E303A091E403B091E503309126
:100CE000E10323E0230F2D3720F40196A11DB11D50
:100CF00005C026E8230F0296A11DB11D2093E10334
:100D00008093E2039093E303A093E403B093E5039D
:100D10008091E6039091E703A091E803B091E90385
:100D20000196A11DB11D8093E6039093E703A09364
:100D3000E803B093E903BF91AF919F918F913F91E9
:100D40002F910F900FBE0F901F901895CF92DF92AA
:100D5000EF92FF92CF93DF93EC01603282E078074D
:100D60000CF03DC077FD06C0653B71052CF064EBCF
:100D700070E002C060E070E0898128E830E069013D
:100D8000C81AD10887FDD394CC0CDD1CCC0CDD1C1B
:100D90000D2C000CEE08FF088A8128E532E0281BA4
:100DA000310987FD3395220F331F220F331FC901ED
:100DB000330FAA0BBB0B9C01AD012C193D094E0949
:100DC0005F09DB010E94941224EB30E040E050E028
:100DD0000E946A12C20ED31EE41EF51EB60188815F
:100DE0008C3080F5998148E850E0491B510997FD06
:100DF0005395440F551F440F551F6417750784F012
:100E00009A8128E532E0291B310997FD3395220F9D
:100E1000331F220F331FAB01261737070CF4A9012C
:100E200042505109440F551F2FB7F89490E0FC0130
:100E3000EE0FFF1F8E0F9F1FFC01E250FD4F5283EC
:100E400041832FBFDF91CF91FF90EF90DF90CF9044
:100E50000895813051F028F0823059F0833069F0E4
:100E6000089570E082EC93E00BC070E088EC93E0B2
:100E700007C070E085EC93E003C070E08FEB93E077
:100E80000C94A6061F93CF93DF93EC01162F888155
:100E90008C3008F04EC061E0812F0E94CF05888120
:100EA000E82FF0E09F01220F331FE20FF31FE25003
:100EB000FD4F1F739081907C192B108319821A8229
:100EC0006CE00E947E0F9CE0899FB001112440E0FD
:100ED00050E09A01260F371FF901EE0FFF1F2E0F6A
:100EE0003F1FF901E250FD4F908196FD16C04F5F04
:100EF0005F4F4C30510569F781110FC0109280008F
:100F000082E0809381001092850010928400B19A53
:100F100080916F00826080936F00E881F0E0CF01E4
:100F2000880F991FE80FF91FE250FD4F8081806400
:100F300080838881DF91CF911F9108958130C9F01E
:100F400028F0823049F18330D1F108958091C203B5
:100F500090E0FC01EE0FFF1F8E0F9F1FFC01E2507F
:100F6000FD4F808186FD3FC06BE070E082EC93E036
:100F700038C08091C80390E0FC01EE0FFF1F8E0F78
:100F80009F1FFC01E250FD4F808186FD2CC06DE06B
:100F900070E088EC93E025C08091C50390E0FC01EF
:100FA000EE0FFF1F8E0F9F1FFC01E250FD4F80814F
:100FB00086FD19C06CE070E085EC93E012C0809172
:100FC000BF0390E0FC01EE0FFF1F8E0F9F1FFC017F
:100FD000E250FD4F808186FD06C06AE070E08FEB35
:100FE00093E00C9442070895FC019091E0039C303B
:100FF000A0F481E0890F8093E0039083892F90E033
:10100000FC01EE0FFF1F8E0F9F1FFC01E250FD4FF2
:1010100088EB9BE09283818308958FEF808308950E
:101020001F920F920FB60F9211242F933F934F935D
:101030005F936F937F938F939F93AF93BF93EF9340
:10104000FF938091DF0387FF05C010928500109207
:1010500084001BC02091DF03022E000C330B809113
:10106000E00390E02817390784F48091DF03082E0D
:10107000000C990BFC01EE0FFF1F8E0F9F1FFC0150
:10108000E250FD4F808186FD15C08091DF038F5FA8
:101090008093DF032091DF03022E000C330B80913D
:1010A000E00390E028173907C4F48091DF038C3007
:1010B00064F113C08091DF03082E000C990BFC0132
:1010C000EE0FFF1F8E0F9F1FFC01E250FD4F80812E
:1010D00060E08F730E947803D8CF80918400909154
:1010E0008500049680349C4918F480E49CE905C08E
:1010F000809184009091850004969093890080935C
:1011000088008FEF8093DF033BC0209184003091F3
:1011100085008091DF03082E000C990BFC01EE0F77
:10112000FF1F8E0F9F1FFC01E250FD4F81819281B6
:10113000820F931F90938900809388008091DF0332
:10114000082E000C990BFC01EE0FFF1F8E0F9F1F46
:10115000FC01E250FD4F808186FF12C08091DF03C9
:10116000082E000C990BFC01EE0FFF1F8E0F9F1F26
:10117000FC01E250FD4F808161E08F730E94780393
:10118000FF91EF91BF91AF919F918F917F916F915F
:101190005F914F913F912F910F900FBE0F901F9035
:1011A0001895AF92BF92CF92DF92EF92FF920F937A
:1011B0001F93CF93DF931F92CDB7DEB75C017B0106
:1011C0008B016C0184E0C80ED11CF80161918F0184
:1011D000C50169830E9454126981681719F0C5011D
:1011E0000E945C12FFEFAF1ABF0AAC14BD0469F78E
:1011F000C7010F90DF91CF911F910F91FF90EF905A
:10120000DF90CF90BF90AF9008958F929F92AF9252
:10121000BF92CF92DF92EF92FF920F931F93CF93E3
:10122000DF9300E010E0C82FD0E06A01550FEE0810
:10123000FF084B01770FAA08BB080C171D079CF489
:10124000C701B6010E94220661E083E00E94780394
:10125000C501B4010E94220660E083E00E94780389
:101260000F5F1F4FEACFDF91CF911F910F91FF903A
:10127000EF90DF90CF90BF90AF909F908F900895A8
:10128000CF92DF92EF92FF920F931F93CF93DF9352
:10129000CDB7DEB761970FB6F894DEBF0FBECDBFF6
:1012A000813049F030F0823041F0833039F423E06E
:1012B00005C022E003C020E001C021E0CE0101967C
:1012C0007C016E0191E1C90ED11C8701822F298B0F
:1012D0000E940B06F701819391937F012989EC15F8
:1012E000FD05A1F720E030E040E0842F90E0B90157
:1012F000680F791F67307105CCF4DC01AA0FBB1FA2
:10130000A00FB11F6D917C911197FC013196EE0FEA
:10131000FF1FE00FF11F808191818617970720F44E
:101320008D939C93718360834F5FDFCF2F5F3F4F1F
:1013300028303105C9F62F8138858D819E81820F35
:10134000931F29853A85820F931F2B853C85820F39
:10135000931F969587959695879561960FB6F89405
:10136000DEBF0FBECDBFDF91CF911F910F91FF90D8
:10137000EF90DF90CF9008954F925F926F927F929F
:101380008F929F92AF92BF92CF92DF92EF92FF9295
:101390000F931F93CF93DF93CDB7DEB7CA50D340DF
:1013A0000FB6F894DEBF0FBECDBF082F4CE251E060
:1013B0006CE271E081E00E940509013089F050F093
:1013C0000230F9F00330C9F583E00E949E076DE218
:1013D00083E02AC080E00E949E076DE280E024C086
:1013E000E0900201F0900301670125E0C21AD108E4
:1013F00035E5E31AF10881E00E949E076E2D81E039
:1014000010C0C0900001D0900101760185E0E80E87
:10141000F11C95E5C90ED11C82E00E949E076E2D3D
:1014200082E00E9429070DC00E9429074DE2E42EA8
:10143000F12C57E8C52ED12C04C0E12CF12CC12C85
:10144000D12C68EE73E080E090E00E94220610E06C
:10145000802F90E0A0E0B0E0C95FDC4F88839983E3
:10146000AA83BB83C750D340F12EFE0C8F2D90E092
:101470008C159D050CF05DC06F2D802F0E942907F3
:1014800064E670E080E090E00E94220694E0199FFC
:101490005001112488248394912C8C0E9D1E8A0C5B
:1014A0009B1C4F2C512C612C712CC301B2010E944A
:1014B000CB10D4016D937D938D939C931397802FC4
:1014C0000E944009E9E6F1E0EC0FFD1FAE0EBF1EE1
:1014D000BC01990F880B990B0E94CD10D5016D931B
:1014E0007D938D939C93139784EB92E00E94250249
:1014F0004AE0C95FDC4F688179818A819B81C7504E
:10150000D3400E94A50180ED92E00E9425024AE0AE
:10151000C301B2010E94A50188EC92E00E9425025D
:10152000F50160817181828193810E9427021F5F92
:101530009BCF6AE5802F0E94290768EE73E080E068
:1015400090E00E942206013059F038F0023059F044
:101550000330B1F4E091BF0308C0E091C20305C0BD
:10156000E091C80302C0E091C503F0E0CF01880F0D
:10157000991FE80FF91FE250FD4F80818F7B808318
:101580008CE191E0CF52DD4F99838883C15DD240D9
:10159000C951DD4F188219821A821B82C75ED24060
:1015A000CD51DD4F188219821A821B82C35ED24050
:1015B000C152DD4F188219821A821B82CF5DD24040
:1015C000C552DD4F188219821A821B82CB5DD24030
:1015D000C952DD4F188219821A821B82C75DD24020
:1015E000C151DD4F188219821A821B82CF5ED24010
:1015F000C551DD4F188219821A821B82CB5ED24000
:10160000CD52DD4F188219821A821B82C35DD240EF
:10161000E12CF12C41E050E04C0F5D1F4E0D5F1DA1
:1016200069E671E06C0F7D1F6E0D7F1DCE018F523C
:101630009D4F0E94ED03F4E0EF0EF11C28E6E21648
:1016400021E0F20639F7011120C0C551DD4F888134
:101650009981AA81BB81CB5ED2408093F6029093A0
:10166000F702A093F802B093F902C151DD4F8881CF
:101670009981AA81BB81CF5ED2408093FA02909378
:10168000FB02A093FC02B093FD0283ED92E00E9466
:101690002502C551DD4F688179818A819B81CB5EAE
:1016A000D2400E94270284EE92E00E942502C1519E
:1016B000DD4F688179818A819B81CF5ED2400E9413
:1016C0002702C151DD4F88819981AA81BB81CF5EFC
:1016D000D240C551DD4F488159816A817B81CB5E03
:1016E000D240CD5FDC4F488359836A837B83C350EC
:1016F000D340C150DD4F88839983AA83BB83CF5FDA
:10170000D24034E0039F80011124BE016D5F7C4F05
:10171000C8018A5B9F4F0E94D108BE0161507D4F76
:10172000C801C2960E94D108C65FDC4F0FB6F8947C
:10173000DEBF0FBECDBFDF91CF911F910F91FF9004
:10174000EF90DF90CF90BF90AF909F908F907F9061
:101750006F905F904F900895E2E2F3E0138212825F
:1017600088EE93E0A0E0B0E084839583A683B783FE
:101770008CE091E09183808385EC90E0958784876D
:1017800084EC90E09787868780EC90E0918B808B4B
:1017900081EC90E0938B828B82EC90E0958B848B34
:1017A00086EC90E0978B868B118E128E138E148EA2
:1017B00088EC93E00E94F40785EC93E00E94F40724
:1017C00082EC93E00E94F4078FEB93E00C94F40713
:1017D000CF93DF93CDB7DEB7A0970FB6F894DEBFF7
:1017E0000FBECDBF789484B5826084BD84B581601E
:1017F00084BD85B5826085BD85B5816085BD8091DC
:101800006E00816080936E00109281008091810053
:10181000826080938100809181008160809381004B
:10182000809180008160809380008091B10084600D
:101830008093B1008091B00081608093B00080916E
:101840007A00846080937A0080917A00826080932D
:101850007A0080917A00816080937A0080917A008A
:10186000806880937A001092C100E0913203F09179
:10187000330382E08083E0912E03F0912F031082E6
:10188000E0913003F091310380E1808310923A03BC
:10189000E0913603F091370386E08083E0913403D2
:1018A000F0913503808180618083E0913403F09171
:1018B0003503808188608083E0913403F0913503A3
:1018C000808180688083E0913403F09135038081CA
:1018D0008F7D808361E083E00E94CF0562E084E039
:1018E0000E94CF0562E087E00E94CF0583E391E08C
:1018F0000E9495018FE391E00E9495011E0121E174
:10190000220E311C05E010E087E00E94A605892B1D
:1019100009F0F1C264E170E080E090E00E942206EC
:1019200087E00E94A605892B09F0E5C282E791E0D5
:101930000E94950144E650E064E670E082E00E9477
:10194000050960ED77E080E090E00E9422068EE7D6
:1019500091E00E9495018FE891E00E9495016DE071
:1019600070E088EC93E00E9442076AE570E088EC42
:1019700093E00E94A60668EE73E080E090E00E948B
:1019800022065AE5C52ED12CE12CF12C5601B601C8
:1019900088EC93E00E94A60662E370E080E090E0AD
:1019A0000E94220689EC91E00E9425024AE0C701CC
:1019B000B6010E94A50186ED91E00E942502AE01CC
:1019C0004F5F5F4F3A0180E00E940B06F301819365
:1019D00091933F01E215F305B1F780E090E060E0FC
:1019E000E62FF0E09C012E0F3F1F2730310504F554
:1019F000DF01AA0FBB1F21E030E02C0F3D1FA20F1B
:101A0000B31F2D913C9111973196EE0FFF1F41E0CE
:101A100050E04C0F5D1FE40FF51F408151814217CC
:101A2000530720F44D935C93318320836F5FD8CFAD
:101A300001968830910599F66F8078848D819E811A
:101A4000680E791E89859A85680E791E8B859C851E
:101A5000680E791E7694679476946794C3010E9409
:101A60000D02C501B8010E948A0F9C01220F331F8D
:101A7000F901EB52FC4F71826082F901E553FC4F92
:101A8000B182A0820497F1F485ED93E020E030E08C
:101A9000FC0102964281538160817181461B570B84
:101AA000240F351F53E08B3D950791F72230310508
:101AB0004CF48091CB039091CC03909303018093DD
:101AC00002010CC08FEFC81AD80AE80AF80A95EB91
:101AD000C916D104E104F10409F058CF88ED91E072
:101AE0000E94250280910201909103010E940D0243
:101AF0008091020190910301019631F484EB90E012
:101B0000909303018093020120910201309103011F
:101B10002739310524F0213A31053CF40CC086E91F
:101B200090E0821B930B0B9734F044E650E064E6A0
:101B300070E084E005C04CE251E06CE271E081E0CD
:101B40000E940509E091C803F0E0CF01880F991FBA
:101B5000E80FF91FE250FD4F80818F7B808360ED9D
:101B600077E080E090E00E9422061092D603109267
:101B7000D5031092CC031092CB031092D80310928D
:101B8000D7031092CE031092CD031092DA03109275
:101B9000D9031092D0031092CF031092DC0310925D
:101BA000DB031092D2031092D1036CE070E085EC5D
:101BB00093E00E9442076AE570E085EC93E00E94A2
:101BC000A60668EE73E080E090E00E9422066AE5D7
:101BD000C62ED12CE12CF12CB60185EC93E00E94AD
:101BE000A60662E370E080E090E00E9422068EEE9E
:101BF00091E00E9425024AE0C701B6010E94A501BA
:101C000086ED91E00E94250282E00E9440093C019D
:101C10000E940D02C601B8010E948A0F9C01220F8A
:101C2000331FF901EB52FC4F71826082F901E553D9
:101C3000FC4FD182C082892BD9F4EDEDF3E080E036
:101C400090E02081318152914291241B350B820F0B
:101C5000931F23E0E73DF207A1F702974CF4809130
:101C6000D3039091D40390930101809300010CC0A1
:101C700031E0C31AD108E108F1084FEFC416D406C9
:101C8000E406F40609F0A8CF8CEF91E00E9425024B
:101C900080910001909101010E940D02809100014C
:101CA00090910101019621F410920101109200011E
:101CB00020910001309101012531310524F02F31AF
:101CC00031053CF40CC084E190E0821B930B0B9730
:101CD00034F044E650E064E670E084E005C04CE295
:101CE00051E06CE271E081E00E940509E091C503DA
:101CF000F0E0CF01880F991FE80FF91FE250FD4F68
:101D000080818F7B808383E192E00E949501F12C9A
:101D10008F2D0E94BC0960ED77E080E090E00E948A
:101D20002206F39484E0F812F3CF60E88BE090E0B1
:101D30000E945C1244EF51E064EF71E081E00E9488
:101D4000050980E292E00E9495018DE292E00E94F6
:101D5000950184E00E94A605892BD9F764E170E023
:101D600080E090E00E94220684E00E94A605892B74
:101D700081F744E650E064E670E082E00E940509E5
:101D800060ED77E080E090E00E94220680E00E9413
:101D90004009BC01990F880B990B0E94CD1020912E
:101DA000FA023091FB024091FC025091FD020E9428
:101DB00082112091F6023091F7024091F802509181
:101DC000F9020E94B90F20E030E044E352E40E949F
:101DD000B80F2B013C01609102017091030166591B
:101DE0007109072E000C880B990B0E94CD106B0116
:101DF0007C0180910001909101014497BC01990FF1
:101E0000880B990B0E94CD104B015C0183E792E097
:101E10000E942502C301B2010E9427028BE892E0D2
:101E20000E942502C701B6010E94270283E792E0C3
:101E30000E942502C501B4010E9427024D8E5E8ECC
:101E40006F8E78A2BE01635E7F4F8EE190E00E94AC
:101E5000D1086AE070E080E090E00E942206C98E1E
:101E6000DA8EEB8EFC8EBE01675E7F4F82E290E0E1
:101E70000E94D1086AE070E080E090E00E942206B3
:101E80008D8A9E8AAF8AB88EBE016B5E7F4F86E2D6
:101E900090E00E94D1086AE070E080E090E00E944B
:101EA0002206198A1A8A1B8A1C8AB1018AE290E0EA
:101EB0000E94D1086AE070E080E090E00E94220673
:101EC00060E88CE090E00E945C1260E88AE090E0BC
:101ED0000E945C1264E170E080E090E00E942206C3
:101EE00084EA92E00E94950144EF51E064EF71E0D2
:101EF00081E00E9405090E94790106CD991B79E0D5
:101F000004C0991F961708F0961B881F7A95C9F789
:101F10008095089597FB072E16F4009407D077FD5F
:101F200009D00E949E0F07FC05D03EF49095819544
:101F30009F4F0895709561957F4F0895AA1BBB1B15
:101F400051E107C0AA1FBB1FA617B70710F0A61BB9
:101F5000B70B881F991F5A95A9F780959095BC01DA
:101F6000CD010895EE0FFF1F0590F491E02D099427
:101F70005058BB27AA270E94D00F0C9443110E94EF
:101F8000351138F00E943C1120F039F49F3F19F4CC
:101F900026F40C9432110EF4E095E7FB0C942C110E
:101FA000E92F0E94541158F3BA1762077307840788
:101FB000950720F079F4A6F50C9476110EF4E095CF
:101FC0000B2EBA2FA02D0B01B90190010C01CA01F3
:101FD000A0011124FF27591B99F0593F50F4503E9E
:101FE00068F11A16F040A22F232F342F4427585F90
:101FF000F3CF469537952795A795F0405395C9F7A8
:102000007EF41F16BA0B620B730B840BBAF091505F
:10201000A1F0FF0FBB1F661F771F881FC2F70EC0FE
:10202000BA0F621F731F841F48F4879577956795D1
:10203000B795F7959E3F08F0B0CF9395880F08F0BD
:102040009927EE0F9795879508950E94081108F437
:1020500081E008950E943E100C9443110E943C11AF
:1020600058F00E94351140F029F45F3F29F00C949C
:102070002C1151110C9477110C9432110E945411AF
:1020800068F39923B1F3552391F3951B550BBB27A7
:10209000AA2762177307840738F09F5F5F4F220FEC
:1020A000331F441FAA1FA9F335D00E2E3AF0E0E8E3
:1020B00032D091505040E695001CCAF72BD0FE2F2D
:1020C00029D0660F771F881FBB1F261737074807C1
:1020D000AB07B0E809F0BB0B802DBF01FF27935879
:1020E0005F4F3AF09E3F510578F00C942C110C9400
:1020F00077115F3FE4F3983ED4F386957795679523
:10210000B795F7959F5FC9F7880F911D96958795AD
:1021100097F90895E1E0660F771F881FBB1F6217CC
:1021200073078407BA0720F0621B730B840BBA0B8A
:10213000EE1F88F7E09508950E945C1188F09F5784
:1021400098F0B92F9927B751B0F0E1F0660F771FDB
:10215000881F991F1AF0BA95C9F714C0B13091F0D1
:102160000E947611B1E008950C947611672F782FB4
:102170008827B85F39F0B93FCCF386957795679596
:10218000B395D9F73EF490958095709561957F4F02
:102190008F4F9F4F0895E89409C097FB3EF49095A8
:1021A0008095709561957F4F8F4F9F4F9923A9F030
:1021B000F92F96E9BB279395F695879577956795BF
:1021C000B795F111F8CFFAF4BB0F11F460FF1BC003
:1021D0006F5F7F4F8F4F9F4F16C0882311F096E996
:1021E00011C0772321F09EE8872F762F05C0662344
:1021F00071F096E8862F70E060E02AF09A95660FFD
:10220000771F881FDAF7880F9695879597F90895B5
:10221000990F0008550FAA0BE0E8FEEF16161706F7
:10222000E807F907C0F012161306E407F50798F05F
:10223000621B730B840B950B39F40A2661F0232B78
:10224000242B252B21F408950A2609F4A140A695F4
:102250008FEF811D811D089597F99F6780E870E0D9
:1022600060E008959FEF80EC089500240A9416160C
:10227000170618060906089500240A941216130674
:10228000140605060895092E0394000C11F4882302
:1022900052F0BB0F40F4BF2B11F460FF04C06F5F1E
:1022A0007F4F8F4F9F4F089557FD9058440F551FF4
:1022B00059F05F3F71F04795880F97FB991F61F0C8
:1022C0009F3F79F087950895121613061406551F3F
:1022D000F2CF4695F1DF08C0161617061806991FAB
:1022E000F1CF86957105610508940895E894BB27A0
:1022F00066277727CB0197F908950E94081108F403
:102300008FEF08950E9495110C9443110E9435118E
:1023100038F00E943C1120F0952311F00C942C1100
:102320000C94321111240C9477110E94541170F303
:10233000959FC1F3950F50E0551F629FF001729F6A
:10234000BB27F00DB11D639FAA27F00DB11DAA1F79
:10235000649F6627B00DA11D661F829F2227B00DC6
:10236000A11D621F739FB00DA11D621F839FA00D51
:10237000611D221F749F3327A00D611D231F849FA1
:10238000600D211D822F762F6A2F11249F575040F8
:102390009AF0F1F088234AF0EE0FFF1FBB1F661F73
:1023A000771F881F91505040A9F79E3F510580F03C
:1023B0000C942C110C9477115F3FE4F3983ED4F306
:1023C000869577956795B795F795E7959F5FC1F7E0
:1023D000FE2B880F911D9695879597F9089519F40E
:1023E00016F40C9432110C943A120E945C11B8F35A
:1023F0009923C9F3B6F39F57550B87FF0E944812E4
:102400000024A0E640EA900180585695979528F45C
:10241000805C660F771F881F20F026173707480754
:1024200030F4621B730B840B202931294A2BA695AB
:1024300017940794202531254A2758F7660F771FF0
:10244000881F20F026173707480730F4620B730BFC
:10245000840B200D311D411DA09581F7B901842FFA
:102460009158880F9695879508950E940811880BBA
:10247000990B08959F3F31F0915020F487957795FF
:102480006795B795880F911D9695879597F908954B
:1024900091505040660F771F881FD2F7089581E052
:1024A00090E0F8940C94CD12F999FECF92BD81BDC5
:1024B000F89A992780B50895262FF999FECF1FBA6B
:1024C00092BD81BD20BD0FB6F894FA9AF99A0FBE5D
:1024D00001960895052E97FB1EF400940E94811228
:1024E00057FD07D00E949C1207FC03D04EF40C94B9
:1024F000811250954095309521953F4F4F4F5F4F3A
:10250000089590958095709561957F4F8F4F9F4F5F
:1025100008950E94BE12A59F900DB49F900DA49F98
:10252000800D911D11240895B7FF0C9489120E940B
:102530008912821B930B0895A1E21A2EAA1BBB1BC2
:10254000FD010DC0AA1FBB1FEE1FFF1FA217B3077F
:10255000E407F50720F0A21BB30BE40BF50B661F95
:10256000771F881F991F1A9469F760957095809559
:1025700090959B01AC01BD01CF010895A29FB001D0
:10258000B39FC001A39F700D811D1124911DB29FA7
:0E259000700D811D1124911D0895F894FFCF48
:10259E00FFFFFFFF010000000000000010018C0093
:1025AE00D900B700CB00570100000000ED03E70390
:1025BE00E103CD030D0A006E616E00696E66006F59
:1025CE007666005B535445505D5245414459005B5D
:1025DE00494E464F5D57616974696E6720466F724A
:1025EE002053746172742C20506C65617365205099
:1025FE007265737320443720746F20537461727444
:10260E002E005B535445505D5354415254005B535E
:10261E005445505D4C494D49544154494F4E005B11
:10262E00494E464F5D547279696E6720746F206310
:10263E006174636820746865206C696D6974696F74
:10264E006E20666F72206C65667420262072696734
:10265E00687420736572766F005B44454255475D22
:10266E004C4546542D002C005B494E464F5D4C6543
:10267E0066745F4D41585F414E474C453A005B448E
:10268E00454255475D52494748542D005B494E46D9
:10269E004F5D52696768745F4D494E5F414E474CBE
:1026AE00453A005B535445505D4C494E45415200EE
:1026BE005B535445505D4D414E55414C005B494E68
:1026CE00464F5D57616974696E6720466F72204D83
:1026DE00616E75616C2043616C6962726174696FC1
:1026EE006E2C20506C65617365205072657373207B
:1026FE004434204F6E636520436F6D706C65746556
:10270E00642E005B494E464F5D534552564F5F5205
:10271E004F545F4F46465345543A005B494E464F21
:10272E005D534552564F5F4C4546545F4F46465398
:10273E0045543A005B535445505D434F4D504C4504
:10274E00544544005B44454255475D534552564FF0
:10275E005F414E474C455F002C20416E616C6F67A8
:10276E003A20005B494E464F5D6C722E6765744190
:10277E0028293A005B494E464F5D6C722E67657490
:06278E004228293A000078
:00000001FF
